{
  "_format": "hh-sol-artifact-1",
  "contractName": "SpaceCoinToken",
  "sourceName": "contracts/SpaceCoinToken.sol",
  "abi": [
    {
      "inputs": [
        {
          "internalType": "address",
          "name": "_admin",
          "type": "address"
        },
        {
          "internalType": "address",
          "name": "_treasury",
          "type": "address"
        }
      ],
      "stateMutability": "nonpayable",
      "type": "constructor"
    },
    {
      "anonymous": false,
      "inputs": [
        {
          "indexed": true,
          "internalType": "address",
          "name": "owner",
          "type": "address"
        },
        {
          "indexed": true,
          "internalType": "address",
          "name": "spender",
          "type": "address"
        },
        {
          "indexed": false,
          "internalType": "uint256",
          "name": "value",
          "type": "uint256"
        }
      ],
      "name": "Approval",
      "type": "event"
    },
    {
      "anonymous": false,
      "inputs": [
        {
          "indexed": true,
          "internalType": "address",
          "name": "from",
          "type": "address"
        },
        {
          "indexed": true,
          "internalType": "address",
          "name": "to",
          "type": "address"
        },
        {
          "indexed": false,
          "internalType": "uint256",
          "name": "value",
          "type": "uint256"
        }
      ],
      "name": "Transfer",
      "type": "event"
    },
    {
      "inputs": [],
      "name": "MINT_LIMIT",
      "outputs": [
        {
          "internalType": "uint256",
          "name": "",
          "type": "uint256"
        }
      ],
      "stateMutability": "view",
      "type": "function"
    },
    {
      "inputs": [],
      "name": "admin",
      "outputs": [
        {
          "internalType": "address",
          "name": "",
          "type": "address"
        }
      ],
      "stateMutability": "view",
      "type": "function"
    },
    {
      "inputs": [
        {
          "internalType": "address",
          "name": "owner",
          "type": "address"
        },
        {
          "internalType": "address",
          "name": "spender",
          "type": "address"
        }
      ],
      "name": "allowance",
      "outputs": [
        {
          "internalType": "uint256",
          "name": "",
          "type": "uint256"
        }
      ],
      "stateMutability": "view",
      "type": "function"
    },
    {
      "inputs": [
        {
          "internalType": "address",
          "name": "spender",
          "type": "address"
        },
        {
          "internalType": "uint256",
          "name": "amount",
          "type": "uint256"
        }
      ],
      "name": "approve",
      "outputs": [
        {
          "internalType": "bool",
          "name": "",
          "type": "bool"
        }
      ],
      "stateMutability": "nonpayable",
      "type": "function"
    },
    {
      "inputs": [
        {
          "internalType": "address",
          "name": "account",
          "type": "address"
        }
      ],
      "name": "balanceOf",
      "outputs": [
        {
          "internalType": "uint256",
          "name": "",
          "type": "uint256"
        }
      ],
      "stateMutability": "view",
      "type": "function"
    },
    {
      "inputs": [],
      "name": "decimals",
      "outputs": [
        {
          "internalType": "uint8",
          "name": "",
          "type": "uint8"
        }
      ],
      "stateMutability": "view",
      "type": "function"
    },
    {
      "inputs": [
        {
          "internalType": "address",
          "name": "spender",
          "type": "address"
        },
        {
          "internalType": "uint256",
          "name": "subtractedValue",
          "type": "uint256"
        }
      ],
      "name": "decreaseAllowance",
      "outputs": [
        {
          "internalType": "bool",
          "name": "",
          "type": "bool"
        }
      ],
      "stateMutability": "nonpayable",
      "type": "function"
    },
    {
      "inputs": [
        {
          "internalType": "address",
          "name": "spender",
          "type": "address"
        },
        {
          "internalType": "uint256",
          "name": "addedValue",
          "type": "uint256"
        }
      ],
      "name": "increaseAllowance",
      "outputs": [
        {
          "internalType": "bool",
          "name": "",
          "type": "bool"
        }
      ],
      "stateMutability": "nonpayable",
      "type": "function"
    },
    {
      "inputs": [],
      "name": "isTaxable",
      "outputs": [
        {
          "internalType": "bool",
          "name": "",
          "type": "bool"
        }
      ],
      "stateMutability": "view",
      "type": "function"
    },
    {
      "inputs": [],
      "name": "name",
      "outputs": [
        {
          "internalType": "string",
          "name": "",
          "type": "string"
        }
      ],
      "stateMutability": "view",
      "type": "function"
    },
    {
      "inputs": [
        {
          "internalType": "address",
          "name": "_to",
          "type": "address"
        },
        {
          "internalType": "uint256",
          "name": "_amount",
          "type": "uint256"
        }
      ],
      "name": "safeMint",
      "outputs": [],
      "stateMutability": "nonpayable",
      "type": "function"
    },
    {
      "inputs": [],
      "name": "symbol",
      "outputs": [
        {
          "internalType": "string",
          "name": "",
          "type": "string"
        }
      ],
      "stateMutability": "view",
      "type": "function"
    },
    {
      "inputs": [],
      "name": "toggleTaxStatus",
      "outputs": [
        {
          "internalType": "bool",
          "name": "",
          "type": "bool"
        }
      ],
      "stateMutability": "nonpayable",
      "type": "function"
    },
    {
      "inputs": [],
      "name": "totalSupply",
      "outputs": [
        {
          "internalType": "uint256",
          "name": "",
          "type": "uint256"
        }
      ],
      "stateMutability": "view",
      "type": "function"
    },
    {
      "inputs": [
        {
          "internalType": "address",
          "name": "to",
          "type": "address"
        },
        {
          "internalType": "uint256",
          "name": "amount",
          "type": "uint256"
        }
      ],
      "name": "transfer",
      "outputs": [
        {
          "internalType": "bool",
          "name": "",
          "type": "bool"
        }
      ],
      "stateMutability": "nonpayable",
      "type": "function"
    },
    {
      "inputs": [
        {
          "internalType": "address",
          "name": "from",
          "type": "address"
        },
        {
          "internalType": "address",
          "name": "to",
          "type": "address"
        },
        {
          "internalType": "uint256",
          "name": "amount",
          "type": "uint256"
        }
      ],
      "name": "transferFrom",
      "outputs": [
        {
          "internalType": "bool",
          "name": "",
          "type": "bool"
        }
      ],
      "stateMutability": "nonpayable",
      "type": "function"
    },
    {
      "inputs": [],
      "name": "treasury",
      "outputs": [
        {
          "internalType": "address",
          "name": "",
          "type": "address"
        }
      ],
      "stateMutability": "view",
      "type": "function"
    }
  ],
  "bytecode": "0x60806040523480156200001157600080fd5b5060405162001d6838038062001d68833981810160405281019062000037919062000296565b6040518060400160405280600a81526020017f537061636520436f696e000000000000000000000000000000000000000000008152506040518060400160405280600381526020017f53434f00000000000000000000000000000000000000000000000000000000008152508160039080519060200190620000bb9291906200017c565b508060049080519060200190620000d49291906200017c565b50505081600560006101000a81548173ffffffffffffffffffffffffffffffffffffffff021916908373ffffffffffffffffffffffffffffffffffffffff16021790555080600660006101000a81548173ffffffffffffffffffffffffffffffffffffffff021916908373ffffffffffffffffffffffffffffffffffffffff1602179055506000600660146101000a81548160ff021916908315150217905550505062000342565b8280546200018a906200030c565b90600052602060002090601f016020900481019282620001ae5760008555620001fa565b82601f10620001c957805160ff1916838001178555620001fa565b82800160010185558215620001fa579182015b82811115620001f9578251825591602001919060010190620001dc565b5b5090506200020991906200020d565b5090565b5b80821115620002285760008160009055506001016200020e565b5090565b600080fd5b600073ffffffffffffffffffffffffffffffffffffffff82169050919050565b60006200025e8262000231565b9050919050565b620002708162000251565b81146200027c57600080fd5b50565b600081519050620002908162000265565b92915050565b60008060408385031215620002b057620002af6200022c565b5b6000620002c0858286016200027f565b9250506020620002d3858286016200027f565b9150509250929050565b7f4e487b7100000000000000000000000000000000000000000000000000000000600052602260045260246000fd5b600060028204905060018216806200032557607f821691505b602082108114156200033c576200033b620002dd565b5b50919050565b611a1680620003526000396000f3fe608060405234801561001057600080fd5b506004361061010b5760003560e01c806361d027b3116100a2578063a457c2d711610071578063a457c2d7146102be578063a9059cbb146102ee578063dd62ed3e1461031e578063ec1187131461034e578063f851a4401461036c5761010b565b806361d027b31461023657806370a082311461025457806395d89b4114610284578063a1448194146102a25761010b565b806323b872dd116100de57806323b872dd1461019a578063313ce567146101ca57806339509351146101e85780634ac0bc32146102185761010b565b8063027752401461011057806306fdde031461012e578063095ea7b31461014c57806318160ddd1461017c575b600080fd5b61011861038a565b6040516101259190610ff4565b60405180910390f35b610136610398565b60405161014391906110a8565b60405180910390f35b61016660048036038101906101619190611159565b61042a565b60405161017391906111b4565b60405180910390f35b61018461044d565b6040516101919190610ff4565b60405180910390f35b6101b460048036038101906101af91906111cf565b610457565b6040516101c191906111b4565b60405180910390f35b6101d2610487565b6040516101df919061123e565b60405180910390f35b61020260048036038101906101fd9190611159565b610490565b60405161020f91906111b4565b60405180910390f35b6102206104c7565b60405161022d91906111b4565b60405180910390f35b61023e6104da565b60405161024b9190611268565b60405180910390f35b61026e60048036038101906102699190611283565b610500565b60405161027b9190610ff4565b60405180910390f35b61028c610548565b60405161029991906110a8565b60405180910390f35b6102bc60048036038101906102b79190611159565b6105da565b005b6102d860048036038101906102d39190611159565b6106d7565b6040516102e591906111b4565b60405180910390f35b61030860048036038101906103039190611159565b61074e565b60405161031591906111b4565b60405180910390f35b610338600480360381019061033391906112b0565b610772565b6040516103459190610ff4565b60405180910390f35b6103566107f9565b60405161036391906111b4565b60405180910390f35b6103746108ca565b6040516103819190611268565b60405180910390f35b6969e10de76676d080000081565b6060600380546103a79061131f565b80601f01602080910402602001604051908101604052809291908181526020018280546103d39061131f565b80156104205780601f106103f557610100808354040283529160200191610420565b820191906000526020600020905b81548152906001019060200180831161040357829003601f168201915b5050505050905090565b6000806104356108f0565b90506104428185856108f8565b600191505092915050565b6000600254905090565b6000806104626108f0565b905061046f858285610ac3565b61047a858585610b4f565b5060019150509392505050565b60006012905090565b60008061049b6108f0565b90506104bc8185856104ad8589610772565b6104b79190611380565b6108f8565b600191505092915050565b600660149054906101000a900460ff1681565b600660009054906101000a900473ffffffffffffffffffffffffffffffffffffffff1681565b60008060008373ffffffffffffffffffffffffffffffffffffffff1673ffffffffffffffffffffffffffffffffffffffff168152602001908152602001600020549050919050565b6060600480546105579061131f565b80601f01602080910402602001604051908101604052809291908181526020018280546105839061131f565b80156105d05780601f106105a5576101008083540402835291602001916105d0565b820191906000526020600020905b8154815290600101906020018083116105b357829003601f168201915b5050505050905090565b600560009054906101000a900473ffffffffffffffffffffffffffffffffffffffff1673ffffffffffffffffffffffffffffffffffffffff163373ffffffffffffffffffffffffffffffffffffffff161461066a576040517f08c379a000000000000000000000000000000000000000000000000000000000815260040161066190611422565b60405180910390fd5b6969e10de76676d080000061067d61044d565b826106889190611380565b11156106c9576040517f08c379a00000000000000000000000000000000000000000000000000000000081526004016106c09061148e565b60405180910390fd5b6106d38282610bf0565b5050565b6000806106e26108f0565b905060006106f08286610772565b905083811015610735576040517f08c379a000000000000000000000000000000000000000000000000000000000815260040161072c90611520565b60405180910390fd5b61074282868684036108f8565b60019250505092915050565b6000806107596108f0565b9050610766818585610b4f565b50600191505092915050565b6000600160008473ffffffffffffffffffffffffffffffffffffffff1673ffffffffffffffffffffffffffffffffffffffff16815260200190815260200160002060008373ffffffffffffffffffffffffffffffffffffffff1673ffffffffffffffffffffffffffffffffffffffff16815260200190815260200160002054905092915050565b6000600560009054906101000a900473ffffffffffffffffffffffffffffffffffffffff1673ffffffffffffffffffffffffffffffffffffffff163373ffffffffffffffffffffffffffffffffffffffff161461088b576040517f08c379a000000000000000000000000000000000000000000000000000000000815260040161088290611422565b60405180910390fd5b600660149054906101000a900460ff1615600660146101000a81548160ff021916908315150217905550600660149054906101000a900460ff16905090565b600560009054906101000a900473ffffffffffffffffffffffffffffffffffffffff1681565b600033905090565b600073ffffffffffffffffffffffffffffffffffffffff168373ffffffffffffffffffffffffffffffffffffffff161415610968576040517f08c379a000000000000000000000000000000000000000000000000000000000815260040161095f906115b2565b60405180910390fd5b600073ffffffffffffffffffffffffffffffffffffffff168273ffffffffffffffffffffffffffffffffffffffff1614156109d8576040517f08c379a00000000000000000000000000000000000000000000000000000000081526004016109cf90611644565b60405180910390fd5b80600160008573ffffffffffffffffffffffffffffffffffffffff1673ffffffffffffffffffffffffffffffffffffffff16815260200190815260200160002060008473ffffffffffffffffffffffffffffffffffffffff1673ffffffffffffffffffffffffffffffffffffffff168152602001908152602001600020819055508173ffffffffffffffffffffffffffffffffffffffff168373ffffffffffffffffffffffffffffffffffffffff167f8c5be1e5ebec7d5bd14f71427d1e84f3dd0314c0f7b2291e5b200ac8c7c3b92583604051610ab69190610ff4565b60405180910390a3505050565b6000610acf8484610772565b90507fffffffffffffffffffffffffffffffffffffffffffffffffffffffffffffffff8114610b495781811015610b3b576040517f08c379a0000000000000000000000000000000000000000000000000000000008152600401610b32906116b0565b60405180910390fd5b610b4884848484036108f8565b5b50505050565b600060011515600660149054906101000a900460ff1615151415610bd95760006064600284610b7e91906116d0565b610b889190611759565b905060008184610b98919061178a565b9050610bc786600660009054906101000a900473ffffffffffffffffffffffffffffffffffffffff1684610d50565b610bd2868683610d50565b5050610be5565b610be4848484610d50565b5b600190509392505050565b600073ffffffffffffffffffffffffffffffffffffffff168273ffffffffffffffffffffffffffffffffffffffff161415610c60576040517f08c379a0000000000000000000000000000000000000000000000000000000008152600401610c579061180a565b60405180910390fd5b610c6c60008383610fd1565b8060026000828254610c7e9190611380565b92505081905550806000808473ffffffffffffffffffffffffffffffffffffffff1673ffffffffffffffffffffffffffffffffffffffff1681526020019081526020016000206000828254610cd39190611380565b925050819055508173ffffffffffffffffffffffffffffffffffffffff16600073ffffffffffffffffffffffffffffffffffffffff167fddf252ad1be2c89b69c2b068fc378daa952ba7f163c4a11628f55a4df523b3ef83604051610d389190610ff4565b60405180910390a3610d4c60008383610fd6565b5050565b600073ffffffffffffffffffffffffffffffffffffffff168373ffffffffffffffffffffffffffffffffffffffff161415610dc0576040517f08c379a0000000000000000000000000000000000000000000000000000000008152600401610db79061189c565b60405180910390fd5b600073ffffffffffffffffffffffffffffffffffffffff168273ffffffffffffffffffffffffffffffffffffffff161415610e30576040517f08c379a0000000000000000000000000000000000000000000000000000000008152600401610e279061192e565b60405180910390fd5b610e3b838383610fd1565b60008060008573ffffffffffffffffffffffffffffffffffffffff1673ffffffffffffffffffffffffffffffffffffffff16815260200190815260200160002054905081811015610ec1576040517f08c379a0000000000000000000000000000000000000000000000000000000008152600401610eb8906119c0565b60405180910390fd5b8181036000808673ffffffffffffffffffffffffffffffffffffffff1673ffffffffffffffffffffffffffffffffffffffff16815260200190815260200160002081905550816000808573ffffffffffffffffffffffffffffffffffffffff1673ffffffffffffffffffffffffffffffffffffffff1681526020019081526020016000206000828254610f549190611380565b925050819055508273ffffffffffffffffffffffffffffffffffffffff168473ffffffffffffffffffffffffffffffffffffffff167fddf252ad1be2c89b69c2b068fc378daa952ba7f163c4a11628f55a4df523b3ef84604051610fb89190610ff4565b60405180910390a3610fcb848484610fd6565b50505050565b505050565b505050565b6000819050919050565b610fee81610fdb565b82525050565b60006020820190506110096000830184610fe5565b92915050565b600081519050919050565b600082825260208201905092915050565b60005b8381101561104957808201518184015260208101905061102e565b83811115611058576000848401525b50505050565b6000601f19601f8301169050919050565b600061107a8261100f565b611084818561101a565b935061109481856020860161102b565b61109d8161105e565b840191505092915050565b600060208201905081810360008301526110c2818461106f565b905092915050565b600080fd5b600073ffffffffffffffffffffffffffffffffffffffff82169050919050565b60006110fa826110cf565b9050919050565b61110a816110ef565b811461111557600080fd5b50565b60008135905061112781611101565b92915050565b61113681610fdb565b811461114157600080fd5b50565b6000813590506111538161112d565b92915050565b600080604083850312156111705761116f6110ca565b5b600061117e85828601611118565b925050602061118f85828601611144565b9150509250929050565b60008115159050919050565b6111ae81611199565b82525050565b60006020820190506111c960008301846111a5565b92915050565b6000806000606084860312156111e8576111e76110ca565b5b60006111f686828701611118565b935050602061120786828701611118565b925050604061121886828701611144565b9150509250925092565b600060ff82169050919050565b61123881611222565b82525050565b6000602082019050611253600083018461122f565b92915050565b611262816110ef565b82525050565b600060208201905061127d6000830184611259565b92915050565b600060208284031215611299576112986110ca565b5b60006112a784828501611118565b91505092915050565b600080604083850312156112c7576112c66110ca565b5b60006112d585828601611118565b92505060206112e685828601611118565b9150509250929050565b7f4e487b7100000000000000000000000000000000000000000000000000000000600052602260045260246000fd5b6000600282049050600182168061133757607f821691505b6020821081141561134b5761134a6112f0565b5b50919050565b7f4e487b7100000000000000000000000000000000000000000000000000000000600052601160045260246000fd5b600061138b82610fdb565b915061139683610fdb565b9250827fffffffffffffffffffffffffffffffffffffffffffffffffffffffffffffffff038211156113cb576113ca611351565b5b828201905092915050565b7f5370616365436f696e546f6b656e3a204f4e4c595f41444d494e000000000000600082015250565b600061140c601a8361101a565b9150611417826113d6565b602082019050919050565b6000602082019050818103600083015261143b816113ff565b9050919050565b7f5370616365436f696e546f6b656e3a204d41585f544f4b454e5f4c494d495400600082015250565b6000611478601f8361101a565b915061148382611442565b602082019050919050565b600060208201905081810360008301526114a78161146b565b9050919050565b7f45524332303a2064656372656173656420616c6c6f77616e63652062656c6f7760008201527f207a65726f000000000000000000000000000000000000000000000000000000602082015250565b600061150a60258361101a565b9150611515826114ae565b604082019050919050565b60006020820190508181036000830152611539816114fd565b9050919050565b7f45524332303a20617070726f76652066726f6d20746865207a65726f2061646460008201527f7265737300000000000000000000000000000000000000000000000000000000602082015250565b600061159c60248361101a565b91506115a782611540565b604082019050919050565b600060208201905081810360008301526115cb8161158f565b9050919050565b7f45524332303a20617070726f766520746f20746865207a65726f20616464726560008201527f7373000000000000000000000000000000000000000000000000000000000000602082015250565b600061162e60228361101a565b9150611639826115d2565b604082019050919050565b6000602082019050818103600083015261165d81611621565b9050919050565b7f45524332303a20696e73756666696369656e7420616c6c6f77616e6365000000600082015250565b600061169a601d8361101a565b91506116a582611664565b602082019050919050565b600060208201905081810360008301526116c98161168d565b9050919050565b60006116db82610fdb565b91506116e683610fdb565b9250817fffffffffffffffffffffffffffffffffffffffffffffffffffffffffffffffff048311821515161561171f5761171e611351565b5b828202905092915050565b7f4e487b7100000000000000000000000000000000000000000000000000000000600052601260045260246000fd5b600061176482610fdb565b915061176f83610fdb565b92508261177f5761177e61172a565b5b828204905092915050565b600061179582610fdb565b91506117a083610fdb565b9250828210156117b3576117b2611351565b5b828203905092915050565b7f45524332303a206d696e7420746f20746865207a65726f206164647265737300600082015250565b60006117f4601f8361101a565b91506117ff826117be565b602082019050919050565b60006020820190508181036000830152611823816117e7565b9050919050565b7f45524332303a207472616e736665722066726f6d20746865207a65726f20616460008201527f6472657373000000000000000000000000000000000000000000000000000000602082015250565b600061188660258361101a565b91506118918261182a565b604082019050919050565b600060208201905081810360008301526118b581611879565b9050919050565b7f45524332303a207472616e7366657220746f20746865207a65726f206164647260008201527f6573730000000000000000000000000000000000000000000000000000000000602082015250565b600061191860238361101a565b9150611923826118bc565b604082019050919050565b600060208201905081810360008301526119478161190b565b9050919050565b7f45524332303a207472616e7366657220616d6f756e742065786365656473206260008201527f616c616e63650000000000000000000000000000000000000000000000000000602082015250565b60006119aa60268361101a565b91506119b58261194e565b604082019050919050565b600060208201905081810360008301526119d98161199d565b905091905056fea264697066735822122036d76ce9d381cbf4f609f452c7d4531ef7007b71fb653f1042660ab74cae7db264736f6c63430008090033",
  "linkReferences": {},
  "deployedLinkReferences": {}
}