{
  "_format": "hh-sol-artifact-1",
  "contractName": "SpaceCoinICO",
  "sourceName": "contracts/SpaceCoinICO.sol",
  "abi": [
    {
      "inputs": [
        {
          "internalType": "address[]",
          "name": "_whitelistAddresses",
          "type": "address[]"
        },
        {
          "internalType": "address",
          "name": "_treasury",
          "type": "address"
        }
      ],
      "stateMutability": "nonpayable",
      "type": "constructor"
    },
    {
      "inputs": [
        {
          "internalType": "uint256",
          "name": "maxPossibleContribution",
          "type": "uint256"
        }
      ],
      "name": "IncorrectContribution",
      "type": "error"
    },
    {
      "inputs": [
        {
          "internalType": "uint256",
          "name": "maxPossibleWithdrawal",
          "type": "uint256"
        }
      ],
      "name": "IncorrectWithdrawal",
      "type": "error"
    },
    {
      "anonymous": false,
      "inputs": [
        {
          "indexed": true,
          "internalType": "address",
          "name": "contributor",
          "type": "address"
        },
        {
          "indexed": false,
          "internalType": "uint256",
          "name": "amount",
          "type": "uint256"
        },
        {
          "indexed": false,
          "internalType": "enum SpaceCoinICO.Status",
          "name": "phaseStatus",
          "type": "uint8"
        },
        {
          "indexed": false,
          "internalType": "uint256",
          "name": "time",
          "type": "uint256"
        }
      ],
      "name": "Contribute",
      "type": "event"
    },
    {
      "anonymous": false,
      "inputs": [
        {
          "indexed": true,
          "internalType": "bool",
          "name": "isPaused",
          "type": "bool"
        },
        {
          "indexed": false,
          "internalType": "uint256",
          "name": "time",
          "type": "uint256"
        }
      ],
      "name": "Paused",
      "type": "event"
    },
    {
      "anonymous": false,
      "inputs": [
        {
          "indexed": false,
          "internalType": "enum SpaceCoinICO.Status",
          "name": "phaseStatus",
          "type": "uint8"
        },
        {
          "indexed": false,
          "internalType": "uint256",
          "name": "time",
          "type": "uint256"
        }
      ],
      "name": "PhaseStatusUpdated",
      "type": "event"
    },
    {
      "anonymous": false,
      "inputs": [
        {
          "indexed": true,
          "internalType": "bool",
          "name": "isTaxed",
          "type": "bool"
        },
        {
          "indexed": false,
          "internalType": "uint256",
          "name": "time",
          "type": "uint256"
        }
      ],
      "name": "TaxToggle",
      "type": "event"
    },
    {
      "anonymous": false,
      "inputs": [
        {
          "indexed": true,
          "internalType": "address",
          "name": "contributor",
          "type": "address"
        },
        {
          "indexed": false,
          "internalType": "uint256",
          "name": "amount",
          "type": "uint256"
        },
        {
          "indexed": false,
          "internalType": "uint256",
          "name": "time",
          "type": "uint256"
        }
      ],
      "name": "TokensWithdrawn",
      "type": "event"
    },
    {
      "inputs": [
        {
          "internalType": "address",
          "name": "_addr",
          "type": "address"
        }
      ],
      "name": "addToWhitelist",
      "outputs": [],
      "stateMutability": "nonpayable",
      "type": "function"
    },
    {
      "inputs": [],
      "name": "admin",
      "outputs": [
        {
          "internalType": "address",
          "name": "",
          "type": "address"
        }
      ],
      "stateMutability": "view",
      "type": "function"
    },
    {
      "inputs": [],
      "name": "contribute",
      "outputs": [],
      "stateMutability": "payable",
      "type": "function"
    },
    {
      "inputs": [
        {
          "internalType": "address",
          "name": "",
          "type": "address"
        }
      ],
      "name": "contributors",
      "outputs": [
        {
          "internalType": "bool",
          "name": "isWhitelisted",
          "type": "bool"
        },
        {
          "internalType": "uint256",
          "name": "amount",
          "type": "uint256"
        },
        {
          "internalType": "uint256",
          "name": "tokensDistributed",
          "type": "uint256"
        }
      ],
      "stateMutability": "view",
      "type": "function"
    },
    {
      "inputs": [
        {
          "internalType": "address",
          "name": "contributor",
          "type": "address"
        }
      ],
      "name": "getAvailableTokens",
      "outputs": [
        {
          "internalType": "uint256",
          "name": "",
          "type": "uint256"
        }
      ],
      "stateMutability": "view",
      "type": "function"
    },
    {
      "inputs": [],
      "name": "isPaused",
      "outputs": [
        {
          "internalType": "bool",
          "name": "",
          "type": "bool"
        }
      ],
      "stateMutability": "view",
      "type": "function"
    },
    {
      "inputs": [
        {
          "internalType": "enum SpaceCoinICO.Status",
          "name": "",
          "type": "uint8"
        }
      ],
      "name": "phaseContributionLimit",
      "outputs": [
        {
          "internalType": "uint256",
          "name": "",
          "type": "uint256"
        }
      ],
      "stateMutability": "view",
      "type": "function"
    },
    {
      "inputs": [],
      "name": "phaseStatus",
      "outputs": [
        {
          "internalType": "enum SpaceCoinICO.Status",
          "name": "",
          "type": "uint8"
        }
      ],
      "stateMutability": "view",
      "type": "function"
    },
    {
      "inputs": [
        {
          "internalType": "address",
          "name": "_addr",
          "type": "address"
        }
      ],
      "name": "removeFromWhitelist",
      "outputs": [],
      "stateMutability": "nonpayable",
      "type": "function"
    },
    {
      "inputs": [],
      "name": "safeMint",
      "outputs": [],
      "stateMutability": "nonpayable",
      "type": "function"
    },
    {
      "inputs": [],
      "name": "scToken",
      "outputs": [
        {
          "internalType": "contract SpaceCoinToken",
          "name": "",
          "type": "address"
        }
      ],
      "stateMutability": "view",
      "type": "function"
    },
    {
      "inputs": [
        {
          "internalType": "bool",
          "name": "_status",
          "type": "bool"
        }
      ],
      "name": "setPauseStatus",
      "outputs": [],
      "stateMutability": "nonpayable",
      "type": "function"
    },
    {
      "inputs": [],
      "name": "toggleTaxStatus",
      "outputs": [
        {
          "internalType": "bool",
          "name": "",
          "type": "bool"
        }
      ],
      "stateMutability": "nonpayable",
      "type": "function"
    },
    {
      "inputs": [],
      "name": "totalContributions",
      "outputs": [
        {
          "internalType": "uint256",
          "name": "",
          "type": "uint256"
        }
      ],
      "stateMutability": "view",
      "type": "function"
    },
    {
      "inputs": [],
      "name": "treasury",
      "outputs": [
        {
          "internalType": "address",
          "name": "",
          "type": "address"
        }
      ],
      "stateMutability": "view",
      "type": "function"
    },
    {
      "inputs": [
        {
          "internalType": "enum SpaceCoinICO.Status",
          "name": "_status",
          "type": "uint8"
        }
      ],
      "name": "updatePhaseStatus",
      "outputs": [],
      "stateMutability": "nonpayable",
      "type": "function"
    },
    {
      "inputs": [
        {
          "internalType": "address",
          "name": "_lpAddress",
          "type": "address"
        }
      ],
      "name": "withdrawFunds",
      "outputs": [],
      "stateMutability": "nonpayable",
      "type": "function"
    },
    {
      "inputs": [
        {
          "internalType": "uint256",
          "name": "_amount",
          "type": "uint256"
        },
        {
          "internalType": "address",
          "name": "_to",
          "type": "address"
        }
      ],
      "name": "withdrawTokens",
      "outputs": [],
      "stateMutability": "nonpayable",
      "type": "function"
    }
  ],
  "bytecode": "0x60806040523480156200001157600080fd5b50604051620045743803806200457483398181016040528101906200003791906200059d565b336000806101000a81548173ffffffffffffffffffffffffffffffffffffffff021916908373ffffffffffffffffffffffffffffffffffffffff16021790555030816040516200008790620003a1565b6200009492919062000614565b604051809103906000f080158015620000b1573d6000803e3d6000fd5b50600460006101000a81548173ffffffffffffffffffffffffffffffffffffffff021916908373ffffffffffffffffffffffffffffffffffffffff1602179055506000600160146101000a81548160ff021916908360028111156200011b576200011a62000641565b5b021790555060018060156101000a81548160ff02191690831515021790555060005b8251811015620001d55760016005600085848151811062000163576200016262000670565b5b602002602001015173ffffffffffffffffffffffffffffffffffffffff1673ffffffffffffffffffffffffffffffffffffffff16815260200190815260200160002060000160006101000a81548160ff0219169083151502179055508080620001cc90620006d8565b9150506200013d565b5080600160006101000a81548173ffffffffffffffffffffffffffffffffffffffff021916908373ffffffffffffffffffffffffffffffffffffffff16021790555069032d26d12e980b600000600360008060028111156200023c576200023b62000641565b5b600281111562000251576200025062000641565b5b81526020019081526020016000208190555069065a4da25d3016c00000600360006001600281111562000289576200028862000641565b5b60028111156200029e576200029d62000641565b5b81526020019081526020016000208190555069152d02c7e14af680000060036000600280811115620002d557620002d462000641565b5b6002811115620002ea57620002e962000641565b5b815260200190815260200160002081905550600460009054906101000a900473ffffffffffffffffffffffffffffffffffffffff1673ffffffffffffffffffffffffffffffffffffffff1663a14481943069021e19e0c9bab24000006040518363ffffffff1660e01b81526004016200036592919062000773565b600060405180830381600087803b1580156200038057600080fd5b505af115801562000395573d6000803e3d6000fd5b505050505050620007a0565b611d68806200280c83390190565b6000604051905090565b600080fd5b600080fd5b600080fd5b6000601f19601f8301169050919050565b7f4e487b7100000000000000000000000000000000000000000000000000000000600052604160045260246000fd5b6200041382620003c8565b810181811067ffffffffffffffff82111715620004355762000434620003d9565b5b80604052505050565b60006200044a620003af565b905062000458828262000408565b919050565b600067ffffffffffffffff8211156200047b576200047a620003d9565b5b602082029050602081019050919050565b600080fd5b600073ffffffffffffffffffffffffffffffffffffffff82169050919050565b6000620004be8262000491565b9050919050565b620004d081620004b1565b8114620004dc57600080fd5b50565b600081519050620004f081620004c5565b92915050565b60006200050d62000507846200045d565b6200043e565b905080838252602082019050602084028301858111156200053357620005326200048c565b5b835b818110156200056057806200054b8882620004df565b84526020840193505060208101905062000535565b5050509392505050565b600082601f830112620005825762000581620003c3565b5b815162000594848260208601620004f6565b91505092915050565b60008060408385031215620005b757620005b6620003b9565b5b600083015167ffffffffffffffff811115620005d857620005d7620003be565b5b620005e6858286016200056a565b9250506020620005f985828601620004df565b9150509250929050565b6200060e81620004b1565b82525050565b60006040820190506200062b600083018562000603565b6200063a602083018462000603565b9392505050565b7f4e487b7100000000000000000000000000000000000000000000000000000000600052602160045260246000fd5b7f4e487b7100000000000000000000000000000000000000000000000000000000600052603260045260246000fd5b7f4e487b7100000000000000000000000000000000000000000000000000000000600052601160045260246000fd5b6000819050919050565b6000620006e582620006ce565b91507fffffffffffffffffffffffffffffffffffffffffffffffffffffffffffffffff8214156200071b576200071a6200069f565b5b600182019050919050565b6000819050919050565b6000819050919050565b60006200075b620007556200074f8462000726565b62000730565b620006ce565b9050919050565b6200076d816200073a565b82525050565b60006040820190506200078a600083018562000603565b62000799602083018462000762565b9392505050565b61205c80620007b06000396000f3fe6080604052600436106101095760003560e01c80638ab1d68111610095578063d7bb99ba11610064578063d7bb99ba14610345578063d80ce28e1461034f578063e43252d71461038c578063ec118713146103b5578063f851a440146103e057610109565b80638ab1d6811461029d578063a7836e36146102c6578063b187bd26146102f1578063c38bb5371461031c57610109565b806361d027b3116100dc57806361d027b3146101ca5780636871ee40146101f557806368742da61461020c5780637f5371731461023557806380f22ae11461026057610109565b80631f6d49421461010e57806337c089231461014d578063398d92bb146101785780633cfe3041146101a1575b600080fd5b34801561011a57600080fd5b5061013560048036038101906101309190611631565b61040b565b60405161014493929190611692565b60405180910390f35b34801561015957600080fd5b50610162610442565b60405161016f91906116c9565b60405180910390f35b34801561018457600080fd5b5061019f600480360381019061019a9190611710565b610448565b005b3480156101ad57600080fd5b506101c860048036038101906101c39190611775565b6106e5565b005b3480156101d657600080fd5b506101df61084e565b6040516101ec91906117b1565b60405180910390f35b34801561020157600080fd5b5061020a610874565b005b34801561021857600080fd5b50610233600480360381019061022e9190611631565b61090d565b005b34801561024157600080fd5b5061024a610af5565b6040516102579190611843565b60405180910390f35b34801561026c57600080fd5b5061028760048036038101906102829190611631565b610b08565b60405161029491906116c9565b60405180910390f35b3480156102a957600080fd5b506102c460048036038101906102bf9190611631565b610bac565b005b3480156102d257600080fd5b506102db610c98565b6040516102e891906118bd565b60405180910390f35b3480156102fd57600080fd5b50610306610cbe565b60405161031391906118d8565b60405180910390f35b34801561032857600080fd5b50610343600480360381019061033e919061191f565b610cd1565b005b61034d610e0c565b005b34801561035b57600080fd5b5061037660048036038101906103719190611775565b6110d3565b60405161038391906116c9565b60405180910390f35b34801561039857600080fd5b506103b360048036038101906103ae9190611631565b6110eb565b005b3480156103c157600080fd5b506103ca6111d7565b6040516103d791906118d8565b60405180910390f35b3480156103ec57600080fd5b506103f561134f565b60405161040291906117b1565b60405180910390f35b60056020528060005260406000206000915090508060000160009054906101000a900460ff16908060010154908060020154905083565b60025481565b60001515600160159054906101000a900460ff1615151461049e576040517f08c379a0000000000000000000000000000000000000000000000000000000008152600401610495906119a9565b60405180910390fd5b6002808111156104b1576104b06117cc565b5b600160149054906101000a900460ff1660028111156104d3576104d26117cc565b5b14610513576040517f08c379a000000000000000000000000000000000000000000000000000000000815260040161050a90611a15565b60405180910390fd5b60008211610556576040517f08c379a000000000000000000000000000000000000000000000000000000000815260040161054d90611aa7565b60405180910390fd5b600061056133610b08565b9050828110156105a857806040517f423ef1ed00000000000000000000000000000000000000000000000000000000815260040161059f91906116c9565b60405180910390fd5b82600560003373ffffffffffffffffffffffffffffffffffffffff1673ffffffffffffffffffffffffffffffffffffffff16815260200190815260200160002060020160008282546105fa9190611af6565b92505081905550600460009054906101000a900473ffffffffffffffffffffffffffffffffffffffff1673ffffffffffffffffffffffffffffffffffffffff1663a144819483856040518363ffffffff1660e01b815260040161065e929190611b4c565b600060405180830381600087803b15801561067857600080fd5b505af115801561068c573d6000803e3d6000fd5b505050503373ffffffffffffffffffffffffffffffffffffffff167fffe903c0abe6b2dbb2f3474ef43d7a3c1fca49e5a774453423ca8e1952aabffa84426040516106d8929190611b75565b60405180910390a2505050565b60008054906101000a900473ffffffffffffffffffffffffffffffffffffffff1673ffffffffffffffffffffffffffffffffffffffff163373ffffffffffffffffffffffffffffffffffffffff1614610773576040517f08c379a000000000000000000000000000000000000000000000000000000000815260040161076a90611bea565b60405180910390fd5b600160149054906101000a900460ff166002811115610795576107946117cc565b5b8160028111156107a8576107a76117cc565b5b116107e8576040517f08c379a00000000000000000000000000000000000000000000000000000000081526004016107df90611c7c565b60405180910390fd5b80600160146101000a81548160ff0219169083600281111561080d5761080c6117cc565b5b02179055507f84b46fa2ef24987becd5dff8f401473d9c6dd2eb9eb01a20b27f1a6c802e982a8142604051610843929190611c9c565b60405180910390a150565b600160009054906101000a900473ffffffffffffffffffffffffffffffffffffffff1681565b600460009054906101000a900473ffffffffffffffffffffffffffffffffffffffff1673ffffffffffffffffffffffffffffffffffffffff1663a144819433670de0b6b3a76400006040518363ffffffff1660e01b81526004016108d9929190611d00565b600060405180830381600087803b1580156108f357600080fd5b505af1158015610907573d6000803e3d6000fd5b50505050565b736cbc2d39ba905b44a5876fdbf6c053fa57dfc88773ffffffffffffffffffffffffffffffffffffffff163373ffffffffffffffffffffffffffffffffffffffff161461098f576040517f08c379a000000000000000000000000000000000000000000000000000000000815260040161098690611d75565b60405180910390fd5b6000479050600460009054906101000a900473ffffffffffffffffffffffffffffffffffffffff1673ffffffffffffffffffffffffffffffffffffffff1663a9059cbb83836040518363ffffffff1660e01b81526004016109f1929190611b4c565b602060405180830381600087803b158015610a0b57600080fd5b505af1158015610a1f573d6000803e3d6000fd5b505050506040513d601f19601f82011682018060405250810190610a439190611daa565b5060008273ffffffffffffffffffffffffffffffffffffffff1682604051610a6a90611e08565b60006040518083038185875af1925050503d8060008114610aa7576040519150601f19603f3d011682016040523d82523d6000602084013e610aac565b606091505b5050905080610af0576040517f08c379a0000000000000000000000000000000000000000000000000000000008152600401610ae790611e69565b60405180910390fd5b505050565b600160149054906101000a900460ff1681565b6000600560008373ffffffffffffffffffffffffffffffffffffffff1673ffffffffffffffffffffffffffffffffffffffff1681526020019081526020016000206002015460058060008573ffffffffffffffffffffffffffffffffffffffff1673ffffffffffffffffffffffffffffffffffffffff16815260200190815260200160002060010154610b9b9190611e89565b610ba59190611ee3565b9050919050565b60008054906101000a900473ffffffffffffffffffffffffffffffffffffffff1673ffffffffffffffffffffffffffffffffffffffff163373ffffffffffffffffffffffffffffffffffffffff1614610c3a576040517f08c379a0000000000000000000000000000000000000000000000000000000008152600401610c3190611bea565b60405180910390fd5b6000600560008373ffffffffffffffffffffffffffffffffffffffff1673ffffffffffffffffffffffffffffffffffffffff16815260200190815260200160002060000160006101000a81548160ff02191690831515021790555050565b600460009054906101000a900473ffffffffffffffffffffffffffffffffffffffff1681565b600160159054906101000a900460ff1681565b60008054906101000a900473ffffffffffffffffffffffffffffffffffffffff1673ffffffffffffffffffffffffffffffffffffffff163373ffffffffffffffffffffffffffffffffffffffff1614610d5f576040517f08c379a0000000000000000000000000000000000000000000000000000000008152600401610d5690611bea565b60405180910390fd5b801515600160159054906101000a900460ff1615151415610db5576040517f08c379a0000000000000000000000000000000000000000000000000000000008152600401610dac90611f63565b60405180910390fd5b80600160156101000a81548160ff0219169083151502179055508015157f1c12c6ba098be6b0fd85dc545e372034d6dbffc61364b8aeb45f7bb253553c4d42604051610e0191906116c9565b60405180910390a250565b60001515600160159054906101000a900460ff16151514610e62576040517f08c379a0000000000000000000000000000000000000000000000000000000008152600401610e59906119a9565b60405180910390fd5b60006002811115610e7657610e756117cc565b5b600160149054906101000a900460ff166002811115610e9857610e976117cc565b5b1415610f355760011515600560003373ffffffffffffffffffffffffffffffffffffffff1673ffffffffffffffffffffffffffffffffffffffff16815260200190815260200160002060000160009054906101000a900460ff16151514610f34576040517f08c379a0000000000000000000000000000000000000000000000000000000008152600401610f2b90611fcf565b60405180910390fd5b5b6000610f3f611373565b905080341115610f8657806040517ffd72d13a000000000000000000000000000000000000000000000000000000008152600401610f7d91906116c9565b60405180910390fd5b3460026000828254610f989190611af6565b9250508190555034600560003373ffffffffffffffffffffffffffffffffffffffff1673ffffffffffffffffffffffffffffffffffffffff1681526020019081526020016000206001016000828254610ff19190611af6565b9250508190555060028081111561100b5761100a6117cc565b5b600160149054906101000a900460ff16600281111561102d5761102c6117cc565b5b14801561104d575060001515600160159054906101000a900460ff161515145b1561106f5760006005346110619190611e89565b905061106d8133610448565b505b3373ffffffffffffffffffffffffffffffffffffffff167f77c0d2dc6c742b0aead8d24342bd2eafc6130bc13927835a2e4b2ddac3d9ff0934600160149054906101000a900460ff16426040516110c893929190611fef565b60405180910390a250565b60036020528060005260406000206000915090505481565b60008054906101000a900473ffffffffffffffffffffffffffffffffffffffff1673ffffffffffffffffffffffffffffffffffffffff163373ffffffffffffffffffffffffffffffffffffffff1614611179576040517f08c379a000000000000000000000000000000000000000000000000000000000815260040161117090611bea565b60405180910390fd5b6001600560008373ffffffffffffffffffffffffffffffffffffffff1673ffffffffffffffffffffffffffffffffffffffff16815260200190815260200160002060000160006101000a81548160ff02191690831515021790555050565b60008060009054906101000a900473ffffffffffffffffffffffffffffffffffffffff1673ffffffffffffffffffffffffffffffffffffffff163373ffffffffffffffffffffffffffffffffffffffff1614611268576040517f08c379a000000000000000000000000000000000000000000000000000000000815260040161125f90611bea565b60405180910390fd5b6000600460009054906101000a900473ffffffffffffffffffffffffffffffffffffffff1673ffffffffffffffffffffffffffffffffffffffff1663ec1187136040518163ffffffff1660e01b8152600401602060405180830381600087803b1580156112d457600080fd5b505af11580156112e8573d6000803e3d6000fd5b505050506040513d601f19601f8201168201806040525081019061130c9190611daa565b90508015157fffba8125f31b508be36070681314ec05bdd48a12f21dd19c98ca022abdae6dff4260405161134091906116c9565b60405180910390a28091505090565b60008054906101000a900473ffffffffffffffffffffffffffffffffffffffff1681565b600080600560003373ffffffffffffffffffffffffffffffffffffffff1673ffffffffffffffffffffffffffffffffffffffff16815260200190815260200160002060010154905060006113c633611462565b9050600060036000600160149054906101000a900460ff1660028111156113f0576113ef6117cc565b5b6002811115611402576114016117cc565b5b81526020019081526020016000205490508183118061142057508083115b15611431576000935050505061145f565b600061145584846114429190611ee3565b600254846114509190611ee3565b6115b4565b9050809450505050505b90565b6000600280811115611477576114766117cc565b5b600160149054906101000a900460ff166002811115611499576114986117cc565b5b14156114b15769152d02c7e14af680000090506115af565b600160028111156114c5576114c46117cc565b5b600160149054906101000a900460ff1660028111156114e7576114e66117cc565b5b14156114fe57683635c9adc5dea0000090506115af565b60011515600560008473ffffffffffffffffffffffffffffffffffffffff1673ffffffffffffffffffffffffffffffffffffffff16815260200190815260200160002060000160009054906101000a900460ff1615151480156115945750600060028111156115705761156f6117cc565b5b600160149054906101000a900460ff166002811115611592576115916117cc565b5b145b156115aa57685150ae84a8cdf0000090506115af565b600090505b919050565b6000818311156115c457816115c6565b825b905092915050565b600080fd5b600073ffffffffffffffffffffffffffffffffffffffff82169050919050565b60006115fe826115d3565b9050919050565b61160e816115f3565b811461161957600080fd5b50565b60008135905061162b81611605565b92915050565b600060208284031215611647576116466115ce565b5b60006116558482850161161c565b91505092915050565b60008115159050919050565b6116738161165e565b82525050565b6000819050919050565b61168c81611679565b82525050565b60006060820190506116a7600083018661166a565b6116b46020830185611683565b6116c16040830184611683565b949350505050565b60006020820190506116de6000830184611683565b92915050565b6116ed81611679565b81146116f857600080fd5b50565b60008135905061170a816116e4565b92915050565b60008060408385031215611727576117266115ce565b5b6000611735858286016116fb565b92505060206117468582860161161c565b9150509250929050565b6003811061175d57600080fd5b50565b60008135905061176f81611750565b92915050565b60006020828403121561178b5761178a6115ce565b5b600061179984828501611760565b91505092915050565b6117ab816115f3565b82525050565b60006020820190506117c660008301846117a2565b92915050565b7f4e487b7100000000000000000000000000000000000000000000000000000000600052602160045260246000fd5b6003811061180c5761180b6117cc565b5b50565b600081905061181d826117fb565b919050565b600061182d8261180f565b9050919050565b61183d81611822565b82525050565b60006020820190506118586000830184611834565b92915050565b6000819050919050565b600061188361187e611879846115d3565b61185e565b6115d3565b9050919050565b600061189582611868565b9050919050565b60006118a78261188a565b9050919050565b6118b78161189c565b82525050565b60006020820190506118d260008301846118ae565b92915050565b60006020820190506118ed600083018461166a565b92915050565b6118fc8161165e565b811461190757600080fd5b50565b600081359050611919816118f3565b92915050565b600060208284031215611935576119346115ce565b5b60006119438482850161190a565b91505092915050565b600082825260208201905092915050565b7f5370616365436f696e49434f3a20434f4e54524143545f49535f504155534544600082015250565b600061199360208361194c565b915061199e8261195d565b602082019050919050565b600060208201905081810360008301526119c281611986565b9050919050565b7f5370616365436f696e49434f3a204f4e4c595f494e5f4f50454e5f5048415345600082015250565b60006119ff60208361194c565b9150611a0a826119c9565b602082019050919050565b60006020820190508181036000830152611a2e816119f2565b9050919050565b7f5370616365436f696e49434f3a204f4e4c595f475245415445525f5448414e5f60008201527f3000000000000000000000000000000000000000000000000000000000000000602082015250565b6000611a9160218361194c565b9150611a9c82611a35565b604082019050919050565b60006020820190508181036000830152611ac081611a84565b9050919050565b7f4e487b7100000000000000000000000000000000000000000000000000000000600052601160045260246000fd5b6000611b0182611679565b9150611b0c83611679565b9250827fffffffffffffffffffffffffffffffffffffffffffffffffffffffffffffffff03821115611b4157611b40611ac7565b5b828201905092915050565b6000604082019050611b6160008301856117a2565b611b6e6020830184611683565b9392505050565b6000604082019050611b8a6000830185611683565b611b976020830184611683565b9392505050565b7f5370616365436f696e49434f3a204f4e4c595f41444d494e0000000000000000600082015250565b6000611bd460188361194c565b9150611bdf82611b9e565b602082019050919050565b60006020820190508181036000830152611c0381611bc7565b9050919050565b7f5370616365436f696e49434f3a2043414e5f4f4e4c595f4d4f56455f464f525760008201527f4152440000000000000000000000000000000000000000000000000000000000602082015250565b6000611c6660238361194c565b9150611c7182611c0a565b604082019050919050565b60006020820190508181036000830152611c9581611c59565b9050919050565b6000604082019050611cb16000830185611834565b611cbe6020830184611683565b9392505050565b6000819050919050565b6000611cea611ce5611ce084611cc5565b61185e565b611679565b9050919050565b611cfa81611ccf565b82525050565b6000604082019050611d1560008301856117a2565b611d226020830184611cf1565b9392505050565b7f4f4e4c595f4d595f474e4f5349535f544553545f4143434f554e540000000000600082015250565b6000611d5f601b8361194c565b9150611d6a82611d29565b602082019050919050565b60006020820190508181036000830152611d8e81611d52565b9050919050565b600081519050611da4816118f3565b92915050565b600060208284031215611dc057611dbf6115ce565b5b6000611dce84828501611d95565b91505092915050565b600081905092915050565b50565b6000611df2600083611dd7565b9150611dfd82611de2565b600082019050919050565b6000611e1382611de5565b9150819050919050565b7f5452414e534645525f4641494c45440000000000000000000000000000000000600082015250565b6000611e53600f8361194c565b9150611e5e82611e1d565b602082019050919050565b60006020820190508181036000830152611e8281611e46565b9050919050565b6000611e9482611679565b9150611e9f83611679565b9250817fffffffffffffffffffffffffffffffffffffffffffffffffffffffffffffffff0483118215151615611ed857611ed7611ac7565b5b828202905092915050565b6000611eee82611679565b9150611ef983611679565b925082821015611f0c57611f0b611ac7565b5b828203905092915050565b7f5370616365436f696e49434f3a20494e56414c49445f55504441544500000000600082015250565b6000611f4d601c8361194c565b9150611f5882611f17565b602082019050919050565b60006020820190508181036000830152611f7c81611f40565b9050919050565b7f5370616365436f696e49434f3a204e4f545f4f4e5f57484954454c4953540000600082015250565b6000611fb9601e8361194c565b9150611fc482611f83565b602082019050919050565b60006020820190508181036000830152611fe881611fac565b9050919050565b60006060820190506120046000830186611683565b6120116020830185611834565b61201e6040830184611683565b94935050505056fea264697066735822122011bd66a013548124c808fa7187f974741b2ce2db9166fe55e353e595660c757064736f6c6343000809003360806040523480156200001157600080fd5b5060405162001d6838038062001d68833981810160405281019062000037919062000296565b6040518060400160405280600a81526020017f537061636520436f696e000000000000000000000000000000000000000000008152506040518060400160405280600381526020017f53434f00000000000000000000000000000000000000000000000000000000008152508160039080519060200190620000bb9291906200017c565b508060049080519060200190620000d49291906200017c565b50505081600560006101000a81548173ffffffffffffffffffffffffffffffffffffffff021916908373ffffffffffffffffffffffffffffffffffffffff16021790555080600660006101000a81548173ffffffffffffffffffffffffffffffffffffffff021916908373ffffffffffffffffffffffffffffffffffffffff1602179055506000600660146101000a81548160ff021916908315150217905550505062000342565b8280546200018a906200030c565b90600052602060002090601f016020900481019282620001ae5760008555620001fa565b82601f10620001c957805160ff1916838001178555620001fa565b82800160010185558215620001fa579182015b82811115620001f9578251825591602001919060010190620001dc565b5b5090506200020991906200020d565b5090565b5b80821115620002285760008160009055506001016200020e565b5090565b600080fd5b600073ffffffffffffffffffffffffffffffffffffffff82169050919050565b60006200025e8262000231565b9050919050565b620002708162000251565b81146200027c57600080fd5b50565b600081519050620002908162000265565b92915050565b60008060408385031215620002b057620002af6200022c565b5b6000620002c0858286016200027f565b9250506020620002d3858286016200027f565b9150509250929050565b7f4e487b7100000000000000000000000000000000000000000000000000000000600052602260045260246000fd5b600060028204905060018216806200032557607f821691505b602082108114156200033c576200033b620002dd565b5b50919050565b611a1680620003526000396000f3fe608060405234801561001057600080fd5b506004361061010b5760003560e01c806361d027b3116100a2578063a457c2d711610071578063a457c2d7146102be578063a9059cbb146102ee578063dd62ed3e1461031e578063ec1187131461034e578063f851a4401461036c5761010b565b806361d027b31461023657806370a082311461025457806395d89b4114610284578063a1448194146102a25761010b565b806323b872dd116100de57806323b872dd1461019a578063313ce567146101ca57806339509351146101e85780634ac0bc32146102185761010b565b8063027752401461011057806306fdde031461012e578063095ea7b31461014c57806318160ddd1461017c575b600080fd5b61011861038a565b6040516101259190610ff4565b60405180910390f35b610136610398565b60405161014391906110a8565b60405180910390f35b61016660048036038101906101619190611159565b61042a565b60405161017391906111b4565b60405180910390f35b61018461044d565b6040516101919190610ff4565b60405180910390f35b6101b460048036038101906101af91906111cf565b610457565b6040516101c191906111b4565b60405180910390f35b6101d2610487565b6040516101df919061123e565b60405180910390f35b61020260048036038101906101fd9190611159565b610490565b60405161020f91906111b4565b60405180910390f35b6102206104c7565b60405161022d91906111b4565b60405180910390f35b61023e6104da565b60405161024b9190611268565b60405180910390f35b61026e60048036038101906102699190611283565b610500565b60405161027b9190610ff4565b60405180910390f35b61028c610548565b60405161029991906110a8565b60405180910390f35b6102bc60048036038101906102b79190611159565b6105da565b005b6102d860048036038101906102d39190611159565b6106d7565b6040516102e591906111b4565b60405180910390f35b61030860048036038101906103039190611159565b61074e565b60405161031591906111b4565b60405180910390f35b610338600480360381019061033391906112b0565b610772565b6040516103459190610ff4565b60405180910390f35b6103566107f9565b60405161036391906111b4565b60405180910390f35b6103746108ca565b6040516103819190611268565b60405180910390f35b6969e10de76676d080000081565b6060600380546103a79061131f565b80601f01602080910402602001604051908101604052809291908181526020018280546103d39061131f565b80156104205780601f106103f557610100808354040283529160200191610420565b820191906000526020600020905b81548152906001019060200180831161040357829003601f168201915b5050505050905090565b6000806104356108f0565b90506104428185856108f8565b600191505092915050565b6000600254905090565b6000806104626108f0565b905061046f858285610ac3565b61047a858585610b4f565b5060019150509392505050565b60006012905090565b60008061049b6108f0565b90506104bc8185856104ad8589610772565b6104b79190611380565b6108f8565b600191505092915050565b600660149054906101000a900460ff1681565b600660009054906101000a900473ffffffffffffffffffffffffffffffffffffffff1681565b60008060008373ffffffffffffffffffffffffffffffffffffffff1673ffffffffffffffffffffffffffffffffffffffff168152602001908152602001600020549050919050565b6060600480546105579061131f565b80601f01602080910402602001604051908101604052809291908181526020018280546105839061131f565b80156105d05780601f106105a5576101008083540402835291602001916105d0565b820191906000526020600020905b8154815290600101906020018083116105b357829003601f168201915b5050505050905090565b600560009054906101000a900473ffffffffffffffffffffffffffffffffffffffff1673ffffffffffffffffffffffffffffffffffffffff163373ffffffffffffffffffffffffffffffffffffffff161461066a576040517f08c379a000000000000000000000000000000000000000000000000000000000815260040161066190611422565b60405180910390fd5b6969e10de76676d080000061067d61044d565b826106889190611380565b11156106c9576040517f08c379a00000000000000000000000000000000000000000000000000000000081526004016106c09061148e565b60405180910390fd5b6106d38282610bf0565b5050565b6000806106e26108f0565b905060006106f08286610772565b905083811015610735576040517f08c379a000000000000000000000000000000000000000000000000000000000815260040161072c90611520565b60405180910390fd5b61074282868684036108f8565b60019250505092915050565b6000806107596108f0565b9050610766818585610b4f565b50600191505092915050565b6000600160008473ffffffffffffffffffffffffffffffffffffffff1673ffffffffffffffffffffffffffffffffffffffff16815260200190815260200160002060008373ffffffffffffffffffffffffffffffffffffffff1673ffffffffffffffffffffffffffffffffffffffff16815260200190815260200160002054905092915050565b6000600560009054906101000a900473ffffffffffffffffffffffffffffffffffffffff1673ffffffffffffffffffffffffffffffffffffffff163373ffffffffffffffffffffffffffffffffffffffff161461088b576040517f08c379a000000000000000000000000000000000000000000000000000000000815260040161088290611422565b60405180910390fd5b600660149054906101000a900460ff1615600660146101000a81548160ff021916908315150217905550600660149054906101000a900460ff16905090565b600560009054906101000a900473ffffffffffffffffffffffffffffffffffffffff1681565b600033905090565b600073ffffffffffffffffffffffffffffffffffffffff168373ffffffffffffffffffffffffffffffffffffffff161415610968576040517f08c379a000000000000000000000000000000000000000000000000000000000815260040161095f906115b2565b60405180910390fd5b600073ffffffffffffffffffffffffffffffffffffffff168273ffffffffffffffffffffffffffffffffffffffff1614156109d8576040517f08c379a00000000000000000000000000000000000000000000000000000000081526004016109cf90611644565b60405180910390fd5b80600160008573ffffffffffffffffffffffffffffffffffffffff1673ffffffffffffffffffffffffffffffffffffffff16815260200190815260200160002060008473ffffffffffffffffffffffffffffffffffffffff1673ffffffffffffffffffffffffffffffffffffffff168152602001908152602001600020819055508173ffffffffffffffffffffffffffffffffffffffff168373ffffffffffffffffffffffffffffffffffffffff167f8c5be1e5ebec7d5bd14f71427d1e84f3dd0314c0f7b2291e5b200ac8c7c3b92583604051610ab69190610ff4565b60405180910390a3505050565b6000610acf8484610772565b90507fffffffffffffffffffffffffffffffffffffffffffffffffffffffffffffffff8114610b495781811015610b3b576040517f08c379a0000000000000000000000000000000000000000000000000000000008152600401610b32906116b0565b60405180910390fd5b610b4884848484036108f8565b5b50505050565b600060011515600660149054906101000a900460ff1615151415610bd95760006064600284610b7e91906116d0565b610b889190611759565b905060008184610b98919061178a565b9050610bc786600660009054906101000a900473ffffffffffffffffffffffffffffffffffffffff1684610d50565b610bd2868683610d50565b5050610be5565b610be4848484610d50565b5b600190509392505050565b600073ffffffffffffffffffffffffffffffffffffffff168273ffffffffffffffffffffffffffffffffffffffff161415610c60576040517f08c379a0000000000000000000000000000000000000000000000000000000008152600401610c579061180a565b60405180910390fd5b610c6c60008383610fd1565b8060026000828254610c7e9190611380565b92505081905550806000808473ffffffffffffffffffffffffffffffffffffffff1673ffffffffffffffffffffffffffffffffffffffff1681526020019081526020016000206000828254610cd39190611380565b925050819055508173ffffffffffffffffffffffffffffffffffffffff16600073ffffffffffffffffffffffffffffffffffffffff167fddf252ad1be2c89b69c2b068fc378daa952ba7f163c4a11628f55a4df523b3ef83604051610d389190610ff4565b60405180910390a3610d4c60008383610fd6565b5050565b600073ffffffffffffffffffffffffffffffffffffffff168373ffffffffffffffffffffffffffffffffffffffff161415610dc0576040517f08c379a0000000000000000000000000000000000000000000000000000000008152600401610db79061189c565b60405180910390fd5b600073ffffffffffffffffffffffffffffffffffffffff168273ffffffffffffffffffffffffffffffffffffffff161415610e30576040517f08c379a0000000000000000000000000000000000000000000000000000000008152600401610e279061192e565b60405180910390fd5b610e3b838383610fd1565b60008060008573ffffffffffffffffffffffffffffffffffffffff1673ffffffffffffffffffffffffffffffffffffffff16815260200190815260200160002054905081811015610ec1576040517f08c379a0000000000000000000000000000000000000000000000000000000008152600401610eb8906119c0565b60405180910390fd5b8181036000808673ffffffffffffffffffffffffffffffffffffffff1673ffffffffffffffffffffffffffffffffffffffff16815260200190815260200160002081905550816000808573ffffffffffffffffffffffffffffffffffffffff1673ffffffffffffffffffffffffffffffffffffffff1681526020019081526020016000206000828254610f549190611380565b925050819055508273ffffffffffffffffffffffffffffffffffffffff168473ffffffffffffffffffffffffffffffffffffffff167fddf252ad1be2c89b69c2b068fc378daa952ba7f163c4a11628f55a4df523b3ef84604051610fb89190610ff4565b60405180910390a3610fcb848484610fd6565b50505050565b505050565b505050565b6000819050919050565b610fee81610fdb565b82525050565b60006020820190506110096000830184610fe5565b92915050565b600081519050919050565b600082825260208201905092915050565b60005b8381101561104957808201518184015260208101905061102e565b83811115611058576000848401525b50505050565b6000601f19601f8301169050919050565b600061107a8261100f565b611084818561101a565b935061109481856020860161102b565b61109d8161105e565b840191505092915050565b600060208201905081810360008301526110c2818461106f565b905092915050565b600080fd5b600073ffffffffffffffffffffffffffffffffffffffff82169050919050565b60006110fa826110cf565b9050919050565b61110a816110ef565b811461111557600080fd5b50565b60008135905061112781611101565b92915050565b61113681610fdb565b811461114157600080fd5b50565b6000813590506111538161112d565b92915050565b600080604083850312156111705761116f6110ca565b5b600061117e85828601611118565b925050602061118f85828601611144565b9150509250929050565b60008115159050919050565b6111ae81611199565b82525050565b60006020820190506111c960008301846111a5565b92915050565b6000806000606084860312156111e8576111e76110ca565b5b60006111f686828701611118565b935050602061120786828701611118565b925050604061121886828701611144565b9150509250925092565b600060ff82169050919050565b61123881611222565b82525050565b6000602082019050611253600083018461122f565b92915050565b611262816110ef565b82525050565b600060208201905061127d6000830184611259565b92915050565b600060208284031215611299576112986110ca565b5b60006112a784828501611118565b91505092915050565b600080604083850312156112c7576112c66110ca565b5b60006112d585828601611118565b92505060206112e685828601611118565b9150509250929050565b7f4e487b7100000000000000000000000000000000000000000000000000000000600052602260045260246000fd5b6000600282049050600182168061133757607f821691505b6020821081141561134b5761134a6112f0565b5b50919050565b7f4e487b7100000000000000000000000000000000000000000000000000000000600052601160045260246000fd5b600061138b82610fdb565b915061139683610fdb565b9250827fffffffffffffffffffffffffffffffffffffffffffffffffffffffffffffffff038211156113cb576113ca611351565b5b828201905092915050565b7f5370616365436f696e546f6b656e3a204f4e4c595f41444d494e000000000000600082015250565b600061140c601a8361101a565b9150611417826113d6565b602082019050919050565b6000602082019050818103600083015261143b816113ff565b9050919050565b7f5370616365436f696e546f6b656e3a204d41585f544f4b454e5f4c494d495400600082015250565b6000611478601f8361101a565b915061148382611442565b602082019050919050565b600060208201905081810360008301526114a78161146b565b9050919050565b7f45524332303a2064656372656173656420616c6c6f77616e63652062656c6f7760008201527f207a65726f000000000000000000000000000000000000000000000000000000602082015250565b600061150a60258361101a565b9150611515826114ae565b604082019050919050565b60006020820190508181036000830152611539816114fd565b9050919050565b7f45524332303a20617070726f76652066726f6d20746865207a65726f2061646460008201527f7265737300000000000000000000000000000000000000000000000000000000602082015250565b600061159c60248361101a565b91506115a782611540565b604082019050919050565b600060208201905081810360008301526115cb8161158f565b9050919050565b7f45524332303a20617070726f766520746f20746865207a65726f20616464726560008201527f7373000000000000000000000000000000000000000000000000000000000000602082015250565b600061162e60228361101a565b9150611639826115d2565b604082019050919050565b6000602082019050818103600083015261165d81611621565b9050919050565b7f45524332303a20696e73756666696369656e7420616c6c6f77616e6365000000600082015250565b600061169a601d8361101a565b91506116a582611664565b602082019050919050565b600060208201905081810360008301526116c98161168d565b9050919050565b60006116db82610fdb565b91506116e683610fdb565b9250817fffffffffffffffffffffffffffffffffffffffffffffffffffffffffffffffff048311821515161561171f5761171e611351565b5b828202905092915050565b7f4e487b7100000000000000000000000000000000000000000000000000000000600052601260045260246000fd5b600061176482610fdb565b915061176f83610fdb565b92508261177f5761177e61172a565b5b828204905092915050565b600061179582610fdb565b91506117a083610fdb565b9250828210156117b3576117b2611351565b5b828203905092915050565b7f45524332303a206d696e7420746f20746865207a65726f206164647265737300600082015250565b60006117f4601f8361101a565b91506117ff826117be565b602082019050919050565b60006020820190508181036000830152611823816117e7565b9050919050565b7f45524332303a207472616e736665722066726f6d20746865207a65726f20616460008201527f6472657373000000000000000000000000000000000000000000000000000000602082015250565b600061188660258361101a565b91506118918261182a565b604082019050919050565b600060208201905081810360008301526118b581611879565b9050919050565b7f45524332303a207472616e7366657220746f20746865207a65726f206164647260008201527f6573730000000000000000000000000000000000000000000000000000000000602082015250565b600061191860238361101a565b9150611923826118bc565b604082019050919050565b600060208201905081810360008301526119478161190b565b9050919050565b7f45524332303a207472616e7366657220616d6f756e742065786365656473206260008201527f616c616e63650000000000000000000000000000000000000000000000000000602082015250565b60006119aa60268361101a565b91506119b58261194e565b604082019050919050565b600060208201905081810360008301526119d98161199d565b905091905056fea2646970667358221220d80aa91cc334f0c82fd1d5d9c8c293c0c5aa4e724f7dea38dc934e059508cf0464736f6c63430008090033",
  "linkReferences": {},
  "deployedLinkReferences": {}
}